:020000040800F2
:10000000300D002045010008AD3D000875310008A5
:10001000A93D0008310A00089B48000800000000C4
:10002000000000000000000000000000FD4100088A
:10003000350A000800000000B1410008FF41000837
:100040005F0100085F0100085F0100085F01000810
:100050005F0100085F0100085F0100085F01000800
:100060005F0100085F0100085F0100085F010008F0
:100070005F0100085F0100085F0100085F010008E0
:100080005F0100085F0100085F0100085F010008D0
:100090005F0100085F0100085F0100085F010008C0
:1000A0005F0100085F0100085F0100085F010008B0
:1000B0005F0100085F0100085F0100085F010008A0
:1000C0005F0100085F0100085F0100085F01000890
:1000D0005F0100085F0100085F0100085F01000880
:1000E0005F0100085F0100085F0100085F01000870
:1000F00035440008254400085F0100085F0100083E
:100100005F0100085F0100085F0100085F0100084F
:100110005F0100085F0100085F0100085F0100083F
:100120005F0100085F0100085F0100085F0100082F
:10013000DFF80CD000F03CFC004800479D5500085B
:10014000300D00200648804706480047FEE7FEE7DE
:10015000FEE7FEE7FEE7FEE7FEE7FEE7FEE7FEE777
:100160008D42000831010008202A04DB203A21FAE0
:1001700002F00021704721FA02F3D040C2F12002C0
:100180009140084319467047D2B201E000F8012BB4
:10019000491EFBD270470022F6E710B513460A4607
:1001A00004461946FFF7F0FF204610BDF0B480EA80
:1001B0000102D40F4200B2EB410F02D202460846C0
:1001C00011464A0042D0C30DDDB2C1F3C752AD1A89
:1001D000202D35DAC1F3160141F4000204B1524278
:1001E000C5F1200602FA06F12A411044B3EBD05FB4
:1001F00023D0C4B1012DA0EBC35009DCF0BC4FF0FB
:10020000004202EAC352DBB200F5000000F02DBB51
:10021000400000F1807000EBC350A0F1807040EA14
:10022000D170490009E0490841EAC071A0EBC35010
:1002300000F50000400800EBC350F0BC00F00CBB20
:100240006142012202EB4101001BF6E7F0BC70475E
:1002500081F00041AAE780F00040A7E780EA0102B0
:1002600010B502F00043400022D04A001FD0010E1A
:1002700001EB1261C0F35600C2F3560240F40000D5
:1002800042F40002A0FB022000047F39140400D0D5
:10029000401C50EA124001D44000491EC2B20C0674
:1002A00004EBD010401C4008802A02D003E000205C
:1002B00010BD20F00100002900DA0020184310BD15
:1002C00030B480EA010202F0004530F0004221F033
:1002D000004013D090B1C30DD40DC2F31601C0F38A
:1002E0001600E41A41F4000140F400027D3491420A
:1002F00001D3641C00E04900002C02DA30BC00206D
:1003000070474FF400000023914201D3891A034340
:1003100040084FEA4101F7D151B1914202D14FF06B
:10032000004105E002D24FF0010101E06FF0010150
:1003300003EBC450284430BC00F08EBA2DE9FE4FC8
:10034000804681EA0300C00F0C46009021F0004176
:1003500023F00045B8EB0200A94105D240462146F2
:1003600090461C460B46024623F00040104347D0FF
:10037000270DC7F30A00C3F30A510290401A0190F7
:1003800040286BDAC3F3130040F4801B00989246B8
:1003900020B10023D2EB030A63EB0B0B0198594603
:1003A000C0F14002504600F036FA06460D4650466F
:1003B0005946019A00F03EFA10EB08006141002412
:1003C00087EA115284EAE7731A4340D0009A62B375
:1003D000019A012A4FEA075215DC001B61EB02016A
:1003E0004FF0004202EA0752CDE90042001C41F5FD
:1003F000801132462B4600F075FA03B0BDE8F08F4D
:1004000040462146F9E7001B61EB0201001C41F563
:10041000801300185B412018A2F5001747EB030179
:1004200040EAD570B6196D4111E06D084FEA360605
:1004300045EAC0754FEA0752001B61EB0201001C40
:1004400041F5801149084FEA300000195141324608
:100450002B4603B0BDE8F04F00F035BA00980122FA
:1004600040000023D0EB020263EBE07300982146CA
:100470004FEAE074B8EB000061EB0401E9E783F0B8
:1004800000435BE781F0004158E72DE9FE4F81EA28
:10049000030404F0004421F0004100944FF0000BED
:1004A00023F0004350EA01045ED052EA03045BD01B
:1004B000C3F30A54C1F30A552C44A4F2F334019453
:1004C000A0FB0254C1F3130141F48011C3F31303E1
:1004D00043F4801301FB024400FB034E840A970A95
:1004E00044EA815447EA8357A4FB076802958D0AC2
:1004F00005FB07854FEA932C04FB0C542705029D4E
:100500004FEA065847EA1637B5EB08056EEB070CBD
:10051000870E920E47EA811742EA8312A7FB020177
:10052000B6EB0B0164EB00042B0D43EA0C335E18B1
:1005300044EB1C50DA465146E7FB0201C5F31304B5
:100540004FEA0B3343EA14534FEA0432019C43EA67
:100550000603A4F10C040294009CCDE900B400F061
:10056000C1F903B0BDE8F08F00200146F9E72DE99D
:10057000F04D81EA030404F0004B21F000451446DD
:100580004FF0000A23F0004150EA050220D054EA5F
:1005900001021DD0C5F30A570246C5F31303C1F388
:1005A0001300C1F30A5640F4801543F48013A7EBFF
:1005B0000608101BD64608F2FD3873EB050002D37F
:1005C00008F1010801E092185B41B8F1000F03DA6D
:1005D00000200146BDE8F08D00204FF48011064652
:1005E00084460EE0171B73EB050705D3121B63EB64
:1005F000050306434CEA010C49084FEA3000921803
:100600005B4150EA0107EDD152EA030012D082EAC1
:10061000040083EA0501084305D0101BAB4106D254
:100620000122002306E000224FF0004302E06FF0B9
:10063000010253101AEB06004CEB085110EB0A00B4
:1006400041EB0B01BDE8F04D00F03DB9C10F80EA70
:10065000E0700844CA079623002100F006B99623EB
:100660000022114600F001B90EB540F2334102916B
:100670000021CDE900110A460B4600F033F903B022
:1006800000BD00F0004220F00040C10DC0F3160094
:1006900040F400007F2901DA00207047962903DC2E
:1006A000C1F19601C84001E096398840002AF4D093
:1006B00040427047C1F30A5210B5C1F3130140F232
:1006C000FF3341F480119A4201DA002010BD40F25C
:1006D00033439A42A2F2334203DC5242FFF744FD15
:1006E00010BD904010BD00F0004230F000400AD034
:1006F000C10D01F56071C0F3160042EA0151C20854
:1007000040071143704700200146704730B5041E72
:1007100071F1000404DB4FF00044404264EB01013E
:10072000141E73F1000405DB1C464FF000435242D7
:1007300063EB0403994208BF904230BD01F00043CF
:1007400030B421F0004150EA010206D00A0DA2F5B2
:100750006072C1F31301002A02DC30BC0020704734
:10076000440F44EAC104C100E01830BC00EBC250A1
:1007700000F072B8002801DBC0F10040002901DB65
:10078000C1F100418142704730B50B46014600205F
:100790002022012409E021FA02F59D4205D303FA43
:1007A00002F5491B04FA02F52844151EA2F10102C4
:1007B000F1DC30BD2DE9F05F0546002092469B46F6
:1007C00088460646814640241BE028464146474667
:1007D0002246FFF7C9FC53465A46C01A914110D32E
:1007E00011461846224600F016F82D1A67EB01084C
:1007F0004F4622460120002100F00DF817EB0009BA
:100800004E41201EA4F10104DFDC484631462A4651
:100810004346BDE8F09F202A04DB203A00FA02F1AB
:10082000002070479140C2F1200320FA03F31943DE
:1008300090407047202A06DBCB17203A41FA02F09D
:1008400043EAE07306E041FA02F3D040C2F120022D
:1008500091400843194670470029A8BF7047401CC3
:10086000490008BF20F00100704710B4B0FA80FCC6
:1008700000FA0CF050EA010404BF10BC704749B103
:10088000CCF1200421FA04F411FA0CF118BF012173
:1008900021430843A3EB0C01CB1D4FEA00614FEA53
:1008A000102042BF002010BC704700EBC350104422
:1008B0000029A4BF10BC7047401C490008BF20F0AD
:1008C000010010BC704710B5141E73F1000408DA63
:1008D000401C41F1000192185B411A4301D120F004
:1008E000010010BD2DE9F04D92469B4611B1B1FAC1
:1008F00081F202E0B0FA80F220329046FFF78BFFDF
:1009000004460F4640EA0A0041EA0B0153465A46A4
:10091000084313D0114653EA010019D0C8F1400230
:100920005046FFF721FC05460E46504659464246C2
:10093000FFF771FF084305D0012004E02046394647
:10094000BDE8F08D0020054346EAE0762C433743AE
:100950000A986305E40AA0EB08000022FD0A44EAB5
:1009600047540A3002D500200146E9E70105101975
:100970006941DDE9084500196941BDE8F04DA2E78C
:10098000C1F30A52C1F3130140F2FF3341F4801165
:100990009A4202DA00200146704740F233439A42FD
:1009A000A2F2334202DC5242FFF7DEBBFFF733BF55
:1009B000064C074D06E0E06840F0010394E80700AC
:1009C00098471034AC42F6D3FFF7B6FBF467000843
:1009D0001468000870B5044600252068806800F09F
:1009E000010018B32068806820F001002168886049
:1009F00000F088FB054613E000F084FB401B022852
:100A00000ED92068806800F0010048B1A06A40F06B
:100A10001000A062E06A40F00100E062012070BDB9
:100A20002068806800F001000028E5D10020F6E78A
:100A300000BFFEE7704772B600BFFEE738B502465A
:100A400000230020009000BF92F82400012801D16B
:100A5000022038BD012082F8240000BF4868072822
:100A600012D21068406B0C79641E04EB84051F24BD
:100A7000AC40A0430D796D1E05EB85050C68AC40BC
:100A800020431468606327E048680D2812D210687C
:100A9000006B0C79E41F04EB84051F24AC40A043D9
:100AA0000D79ED1F05EB85050C68AC4020431468FB
:100AB000206311E01068C06A0C790D3C04EB8405DA
:100AC0001F24AC40A0430D790D3D05EB85050C6856
:100AD000AC4020431468E06208680A2812D310680A
:100AE000C0680C780A3C04EB44050724AC40A043E2
:100AF0000D780A3D05EB45058C68AC402043146831
:100B0000E0600FE0106800690C7804EB44050724EE
:100B1000AC40A0430D7805EB45058C68AC40204304
:100B2000146820610868102802D00868112827D1AD
:100B3000174C1068A0421ED11068806800F40000B5
:100B4000F0B91068806840F400001468A06008687C
:100B5000102815D10F4800680F4CB0FBF4F000EBE3
:100B600080004000009002E00098401E0090009835
:100B70000028F9D104E0906A40F02000906201233F
:100B800000BF002082F8240000BF184661E7000083
:100B9000002401405C00002040420F002DE9F0419C
:100BA0000446002700250026A84614B90120BDE808
:100BB000F081A06810B1207D00B100BFA06A30B9FB
:100BC0000020E06284F82400204600F097F82046D8
:100BD000FFF700FF0746A06A00F01000002873D15D
:100BE000002F7ED1A06A20F4885040F00200A0625D
:100BF0003F4AD4E90001904208D1E069B0F5402FA6
:100C000002D14FF4002002E0E06900E0E069014316
:100C1000207B41EA40000643A068B0F5807F02D007
:100C2000A068012802D14FF4807000E00020054345
:100C3000207D012811D1207B38B9A069401E4FF4D6
:100C4000006141EA4030054307E0A06A40F020001F
:100C5000A062E06A40F00100E0622068406820F491
:100C6000694028432168486020688068214908401D
:100C7000304321688860A068B0F5807F02D0A0680A
:100C8000012802D14FF4807000E00020B0F5807F91
:100C900003D1208A401E4FEA00582068C06A20F421
:100CA000700040EA08002168C86220688068124924
:100CB0000840B04209D10020E062A06A20F00200A2
:100CC00040F00100A06211E00BE0A06A20F00200F9
:100CD00040F01000A062E06A40F00100E0620127ED
:100CE00004E0A06A40F01000A062012738465EE7E9
:100CF000003C0140FDF7E1FFFE0E1FFF10B586B07E
:100D00000446002002900390049005901449206846
:100D1000884222D100BF1348806940F40070114915
:100D200088610846806900F40070019000BF00BF30
:100D300000BF0846806940F0040088610846806969
:100D400000F00400019000BF00BFF02002900320DB
:100D5000039002A9044800F01DF806B010BD000081
:100D600000240140001002400008014070B5044614
:100D700000F0C8F906462546681C10B10448007802
:100D8000054400BF00F0BEF9801BA842FAD370BD35
:100D9000580000202DE9F847024600239C467BE1DD
:100DA0004FF0010808FA03F4D1F8008008EA0400C3
:100DB000A0427DD1DFF8F4A2D1F80480A8EB0A09A3
:100DC000D0453AD014DCB8F1030F50D009DCB8F1AB
:100DD000000F31D0B8F1010F1CD0B8F1020F49D18A
:100DE00020E0B8F1110F18D0B8F1120F42D11EE077
:100DF000B9F5881F25D006DCB9F5803F20D0B9F5BC
:100E0000801F37D11AE0B9F5001F18D0B9F5041FBB
:100E100030D117E0D1F80CC02DE0D1F80C8008F1EA
:100E2000040C28E0D1F80C8008F1080C23E0D1F87C
:100E30000C8008F10C0C1EE000BF00BF00BF00BF1B
:100E400000BF00BFD1F80880B8F1000F02D14FF009
:100E5000040C0BE0D1F80880B8F1010F03D14FF07A
:100E6000080C146102E04FF0080C546103E04FF0ED
:100E7000000C00E000BF00BFFF2801D8904601E051
:100E800002F104084646FF2802D84FEA830803E02F
:100E9000A3F108084FEA88084746D6F800804FF0CB
:100EA0000F0909FA07F928EA09080CFA07F900E01E
:100EB0007AE048EA0908C6F80080D1F8048008F012
:100EC0008058B8F1805F6FD100BFDFF8E481D8F8B7
:100ED000188048F00108DFF8D891C9F81880C84692
:100EE000D8F8188008F00108CDF8008000BF00BFD6
:100EF0004FEAB9384FEA930958F829504FEA8378F6
:100F00004FEA18794FF00F0808FA09F825EA0805A2
:100F1000DFF8A081424502D14FF0000824E0DFF85D
:100F20009881424502D14FF001081DE0DFF88C8125
:100F3000424502D14FF0020816E0DFF884814245B5
:100F400002D14FF003080FE0DFF87881424502D16B
:100F50004FF0040808E0DFF87081424502D14FF0FD
:100F6000050801E04FF006084FEA83794FEA197946
:100F700008FA09F848EA0505DFF850814FEA9309B5
:100F800048F82950D1F8048008F48018B8F5801F7B
:100F90000BD1DFF83C81D8F8008048EA0008DFF880
:100FA0003091C9F800800AE075E0DFF82481D8F8B4
:100FB000008028EA0008DFF81891C9F80080D1F80D
:100FC000048008F40018B8F5001F0ED1DFF8008186
:100FD00008F10408D8F8008048EA0008DFF8F0902B
:100FE00009F10409C9F800800DE0DFF8E48008F198
:100FF0000408D8F8008028EA0008DFF8D49009F146
:101000000409C9F80080D1F8048008F40038B8F564
:10101000003F0ED1DFF8B880A8F10408D8F80080AE
:1010200048EA0008DFF8A890A9F10409C9F800808F
:101030000DE0DFF89C80A8F10408D8F8008028EAC9
:101040000008DFF88C90A9F10409C9F80080D1F8F4
:10105000048008F48038B8F5803F0ED1DFF8708046
:10106000A8F10808D8F8008048EA0008DFF8609086
:10107000A9F10809C9F800800DE0DFF85480A8F153
:101080000808D8F8008028EA0008DFF84490A9F1A1
:101090000809C9F800805B1CD1F8008028FA03F821
:1010A000B8F1000F7FF47CAEBDE8F88700001110A6
:1010B0000010024000080140000C014000100140F7
:1010C0000014014000180140001C014008000140CC
:1010D00008040140024693680B400BB1012000E078
:1010E0000020704710B5C26821EA020302EA010439
:1010F00043EA0443036110BD0AB1016101E00B043E
:1011000003617047014800687047000050000020EC
:1011100070B504460CB9012070BD94F83D0028B9A3
:10112000002084F83C00204600F048FB242084F88E
:101130003D002068006820F00100216808602068F8
:10114000006840F40040216808602068006820F4CE
:1011500000402168086000F059FE05465C4960685F
:10116000884206D85B48854201D2012007E0002072
:1011700005E05948854201D2012000E00020012805
:1011800000D1C9E75548B5FBF0F62068406820F06B
:101190003F003043216848604D496068884201D86B
:1011A000701C07E04FF4967070434FF47A71B0FBF7
:1011B000F1F0401C2168096A21F03F0108432168D1
:1011C000086243496068884214D8681E6168490013
:1011D000B0FBF1F0401CC0F30B00042801D2042046
:1011E0003DE0681E61684900B0FBF1F0401CC0F3AF
:1011F0000B0034E0A06838B9681E616801EB41015A
:10120000B0FBF1F0401C0AE0681E616801EBC1020E
:1012100002EB0111B0FBF1F0401C40F48040C0F340
:101220000B0008B901201AE0A06848B9681E61687F
:1012300001EB4101B0FBF1F0401CC0F30B000CE0EE
:10124000681E616801EBC10202EB0111B0FBF1F015
:10125000401CC0F30B0040F4804040F40040216883
:10126000C9694CF6FF72914308432168C861D4E90B
:10127000070108432168096821F0C001084321687B
:101280000860D4E9031008432168896848F2FF32F6
:101290009143084321688860D4E905010843216827
:1012A000C96821F0FF0108432168C8602068006810
:1012B00040F001002168086000202064202084F8AC
:1012C0003D000020206384F83E0000BF24E70000BA
:1012D000A086010080841E0000093D0040420F00EE
:1012E0002DE9FC4704468946174698460A9E002089
:1012F0000190FFF707FF054694F83D0020286FD1C5
:1013000019230122CD492046009502F084F810B13E
:101310000220BDE8FC8700BF94F83C00012801D101
:101320000220F6E7012084F83C0000BF2068006836
:1013300000F0010028B92068006840F00100216831
:1013400008602068006820F400602168086022209E
:1013500084F83D00102084F83E000020206467627D
:10136000A4F82A80608D2085B548E0622B4632467D
:101370004946204601F020FF08B10120C9E7208D31
:1013800088B900BF00200090206840690090206864
:101390008069009000BF00BF2068006840F40070C2
:1013A000216808604BE0208D01281AD12068006870
:1013B00020F480602168086072B600BF00200090B1
:1013C00020684069009020688069009000BF00BFDD
:1013D0002068006840F400702168086062B62EE062
:1013E00029E1208D022819D12068006840F40060AE
:1013F0002168086072B600BF002000902068406934
:10140000009020688069009000BF00BF20680068DD
:1014100020F480602168086062B610E020680068EF
:1014200040F480602168086000BF002000902068C0
:101430004069009020688069009000BF00BFEBE029
:10144000208D03287ED8208D012815D12A463146CB
:10145000204602F0BCF808B101205AE72068006974
:10146000616A0870606A401C6062208D401E2085A1
:10147000608D401E6085CFE0208D02282CD1334640
:10148000002270492046009501F0C5FF08B10120F7
:101490003FE772B62068006840F400702168086079
:1014A00020680069616A0870606A401C6062208D73
:1014B000401E2085608D401E608562B620680069F0
:1014C000616A0870606A401C6062208D401E208541
:1014D000608D401E60859FE03346002259492046BA
:1014E000009501F098FF08B1012012E7206800681C
:1014F00020F480602168086072B620680069616A23
:101500000870606A401C6062208D401E2085608DDE
:10151000401E60854C4800681921B0FBF1F04FF483
:101520007A71B0FBF1F0C0EBC00000EB80000190DD
:1015300000BF0198401E01900198A8B900202063C7
:10154000202000E038E084F83D00002084F83E00D0
:10155000206C40F02000206462B600BF002084F8B8
:101560003C0000BF0120D4E620684069C0F3800041
:101570000028DED02068006840F400702168086010
:1015800020680069616A0870606A401C6062208D92
:10159000401E2085608D401E608562B6206800690F
:1015A000616A0870606A401C6062208D401E208560
:1015B000608D401E60852FE02A463146204602F0AD
:1015C00006F808B10120A4E620680069616A087085
:1015D000606A401C6062208D401E2085608D401E28
:1015E000608520684069C0F38000A8B1208D032881
:1015F00005D12068006820F48060216808602068B8
:101600000069616A0870606A401C6062208D401E3B
:101610002085608D401E6085208D00287FF410AFEE
:10162000202084F83D00002084F83E0000BF84F8AC
:101630003C0000BF6DE602206BE6000002001000D7
:101640000000FFFF040001005C0000202DE9F843CA
:101650000446894616461F46DDF82080FFF752FDF6
:10166000054694F83D0020287ED1192301225149D6
:101670002046009501F0CFFE10B10220BDE8F883AE
:1016800000BF94F83C00012801D10220F6E70120B8
:1016900084F83C0000BF2068006800F0010028B911
:1016A0002068006840F00100216808602068006838
:1016B00020F4006021680860212084F83D0010209B
:1016C00084F83E000020206466626785608D208576
:1016D0003948E0622B4642464946204601F008FE62
:1016E00008B10120CAE700BF0020009020684069CF
:1016F000009020688069009000BF00BF44E02A4647
:101700004146204601F0A8FF50B1206C042805D1C5
:101710002068006840F40070216808600120ADE78F
:10172000606A007821680861606A401C6062608DB0
:10173000401E6085208D401E208520684069C0F3D2
:10174000800070B1208D60B1606A00782168086106
:10175000606A401C6062608D401E6085208D401E66
:1017600020852A46414600E022E0204601F020FE86
:1017700050B1206C042805D12068006840F4007046
:1017800021680860012079E7208D0028B7D1206802
:10179000006840F4007021680860202084F83D0053
:1017A000002084F83E0000BF84F83C0000BF65E7DD
:1017B000022063E7020010000000FFFF10B586B0B2
:1017C000044600200290039004900590164920687A
:1017D000884226D100BF1548806940F008001349AF
:1017E00088610846806900F00800019000BF00BFD2
:1017F0004FF440600290122003900320059002A94C
:101800000B48FFF7C7FA00BF0848C06940F48000E2
:101810000649C8610846C06900F48000019000BF15
:1018200000BF06B010BD000000580040001002408C
:10183000000C014003480068034909780844014945
:1018400008607047500000205800002010B508487C
:10185000006840F0100006490860032000F0A8F876
:101860000F2000F007F800F02BF8002010BD00005A
:101870000020024070B504460E4800784FF47A719B
:10188000B1FBF0F00C490968B1FBF0F5284600F017
:1018900049FD08B1012070BD102C07D2002221465D
:1018A000501E00F047F80548046001E00120F2E70F
:1018B0000020F0E7580000205C00002054000020C9
:1018C00008B500BF1148806940F001000F498861E8
:1018D0000846806900F00100009000BF00BF00BF13
:1018E0000846C06940F08050C8610846C06900F0F1
:1018F0008050009000BF00BF00BF0549486820F03D
:10190000E06040F00070486000BF08BD0010024079
:101910000000014001460846002809DB00F01F03D3
:1019200001229A4043099B0003F1E023C3F8002100
:1019300000BF70472DE9F05F80460D461646002730
:1019400002F0C2FF074639462A46334601F0070037
:10195000C0F1070ABAF1040F02D94FF0040A01E0FE
:10196000C0F1070AD14600F1040ABAF1070F02D20A
:101970004FF0000A01E0A0F1030AD4464FF0010A3B
:101980000AFA09FAAAF1010A0AEA020A0AFA0CFAA0
:101990004FF0010B0BFA0CFBABF1010B0BEA030B45
:1019A0004AEA0B042146404602F096FFBDE8F09F4C
:1019B00000BF00F00702064B19684FF6FF031940FD
:1019C000044B0B4343EA0221014B196000BF7047EF
:1019D0000CED00E00000FA0570B504460CB90120DA
:1019E00070BD94F8910228B9002084F89002204636
:1019F00000F090F8032084F89102002161712068C2
:101A000002F03EFF94E80F0002F028FF20B1022010
:101A100084F891020120E3E70021206802F03AFFF8
:101A200020B1022084F891020120D9E700252AE0A4
:101A3000012105EB850204F1100000EBC2004170AA
:101A400005EB850104F1100000F83150002105EB91
:101A5000850200EBC200C17005EB850204F11000A5
:101A600000EBC200016105EB850204F1100000EB00
:101A7000C200416105EB850204F1100000EBC200D9
:101A80008161681CC5B22079A842D1DC00252AE01A
:101A9000002105EB850204F5A87000EBC20041703F
:101AA00005EB850104F5A87000F83150002105EB25
:101AB000850200EBC200C17005EB850204F5A87039
:101AC00000EBC200016105EB850204F5A87000EB94
:101AD000C200416105EB850204F5A87000EBC2006D
:101AE0008161681CC5B22079A842D1DC94E80F005E
:101AF00002F0BBFE20B1022084F8910201206FE7C2
:101B000000206073012084F89102206802F0AAFE90
:101B1000002065E708B5094A016891420DD100BF70
:101B20000749C96941F40001054AD1611146C969F3
:101B300001F40001009100BF00BF08BD005C00403F
:101B400000100240F8B5044600260025207800F079
:101B5000010000286BD000274348C06900F0805086
:101B600070B900BF4048C06940F080503E49C8612C
:101B70000846C06900F08050009000BF00BF0127F8
:101B80003A48006800F48070B0B93848006840F402
:101B9000807036490860FFF7B5FA064606E0FFF7A1
:101BA000B1FA801B642801D90320F8BD2F480068D2
:101BB00000F480700028F2D02B48006A00F44075D1
:101BC0002DB3A08800F44070A84220D02648006AB7
:101BD00020F4407501202649086000200860224852
:101BE000056205F0010090B1FFF78CFA064608E0A7
:101BF000FFF788FA801B41F28831884201D903201F
:101C0000D3E71948006A00F002000028F0D0164817
:101C1000006A20F440706168084313490862012F8C
:101C200004D10846C06920F08050C86100BF207808
:101C300000F00200022807D10B48406820F4404021
:101C4000A168084308494860207800F01000102877
:101C500007D10548406820F48000616908430249C3
:101C600048600020A1E70000001002400070004022
:101C70004004424270B504460D460CB9012070BDC7
:101C80005A48006800F00700A8420ED25748006882
:101C900020F007002843554908600846006800F016
:101CA0000700A84201D00120E9E7207800F00200F7
:101CB00002281DD1207800F00400042805D14C48EA
:101CC000406840F4E0604A494860207800F008002D
:101CD000082805D14648406840F4605044494860AF
:101CE0004348406820F0F000A1680843404948603C
:101CF000207800F0010078B36068012806D13C48E4
:101D0000006800F4003090B90120B8E7606802284C
:101D100006D13748006800F0007040B90120AEE7F6
:101D20003348006800F0020008B90120A7E73048F6
:101D3000406820F00300616808432D494860FFF7C0
:101D4000E1F9064609E0FFF7DDF9801B41F2883131
:101D5000884202D9032092E707E02548406800F056
:101D60000C006168B0EB810FEDD12048006800F0F5
:101D70000700A8420ED91D48006820F0070028433C
:101D80001A4908600846006800F00700A84201D020
:101D9000012074E7207800F00400042807D11448DB
:101DA000406820F4E060E168084311494860207809
:101DB00000F00800082808D10D48406820F4605061
:101DC000216940EAC1000A49486000F03FF808492B
:101DD0004968C1F30311074A515CC84006490860CD
:101DE00006480068FFF746FD002048E70020024053
:101DF00000100240EA6100085C000020540000204E
:101E000001480068704700005C00002000B5FFF743
:101E1000F7FF04494968C1F30221034A515CC840F5
:101E200000BD000000100240FA61000800B5FFF795
:101E3000E7FF04494968C1F3C221034A515CC84025
:101E400000BD000000100240FA61000870B50021DA
:101E50000022002400230020134D696801F00C05C6
:101E6000F5B1042D02D0082D19D101E00F4819E079
:101E70000F4DC1F38346AB5D01F4803555B10A4D7A
:101E80006D68C5F340450B4E725D084D5D43B5FB73
:101E9000F2F402E0084D03FB05F4204602E000BF27
:101EA000064800BF00BF70BD00100240001BB70015
:101EB000D8610008E861000800093D0000127A00BE
:101EC000F8B504460CB90120F8BD207800F00100F7
:101ED000002878D0F848406800F00C0004280CD0A6
:101EE000F548406800F00C00082811D1F24840681D
:101EF00000F48030B0F5803F0AD1EF48006800F46C
:101F0000003000285FD0606800285CD10120DBE74A
:101F100000BF6068B0F5803F06D1E748006840F434
:101F20008030E549086028E0606858B9E2480068F8
:101F300020F48030E04908600846006820F48020E2
:101F400008601AE06068B0F5A02F0BD1DA4800688D
:101F500040F48020D84908600846006840F480308A
:101F600008600AE0D448006820F48030D249086054
:101F70000846006820F48020086000BF606888B1CF
:101F8000FFF7C0F8054606E0FFF7BCF8401B6428E1
:101F900001D9032098E7C848006800F40030002801
:101FA000F2D010E0FFF7AEF8054606E0FFF7AAF81A
:101FB000401B642801D9032086E7BF48006800F46D
:101FC00000300028F2D1207800F00200022857D11A
:101FD000B948406800F00C0050B1B748406800F0C4
:101FE0000C00082818D1B448406800F4803098B933
:101FF000B148006800F0020020B12069012801D03A
:10200000012061E7AC48006820F0F800616940EA0F
:10201000C100A949086033E02069E8B10120A7495F
:102020000860FFF76FF8054606E0FFF76BF8401B06
:10203000022801D9032047E79F48006800F002000A
:102040000028F2D09C48006820F0F800616940EA5E
:10205000C1009949086013E0002098490860FFF723
:1020600051F8054606E0FFF74DF8401B022801D95C
:10207000032029E79048006800F002000028F2D110
:10208000207800F0080008282DD1A069B8B10120FF
:102090008B490860FFF736F8054606E0FFF732F88F
:1020A000401B022801D903200EE78348406A00F054
:1020B00002000028F2D0012002F07CF813E000209A
:1020C0007F490860FFF71EF8054606E0FFF71AF89B
:1020D000401B022801D90320F6E67748406A00F049
:1020E00002000028F2D1207800F00400042873D107
:1020F00000277148C06900F0805070B900BF6E4879
:10210000C06940F080506C49C8610846C06900F061
:102110008050009000BF00BF01276A48006800F4AB
:102120008070B0B96748006840F480706549086005
:10213000FEF7E8FF054606E0FEF7E4FF401B6428D3
:1021400001D90320C0E65F48006800F480700028D1
:10215000F2D000BFE068012806D15748006A40F07D
:1021600001005549086227E0E06858B95248006A02
:1021700020F00100504908620846006A20F004007F
:10218000086219E0E06805280BD14B48006A40F06E
:102190000400494908620846006A40F001000862EC
:1021A0000AE04548006A20F00100434908620846F9
:1021B000006A20F00400086200BFE068A0B1FEF7EA
:1021C000A1FF054609E0FEF79DFF401B41F2883163
:1021D000884202D9032077E622E03748006A00F0FF
:1021E00002000028EFD012E0FEF78CFF054608E061
:1021F000FEF788FF401B41F28831884201D9032055
:1022000062E62D48006A00F002000028F0D1012F9C
:1022100005D12948C06920F080502749C86100BF16
:10222000E069C8B32448406800F00C00082860D07A
:10223000E069022848D1002020490866FEF762FFC5
:10224000054606E0FEF75EFF401B022801D9032089
:102250003AE61948006800F000700028F2D1206AC0
:10226000B0F5803F07D11448406820F40030A168E1
:10227000084311494860D4E9080108430E494968F8
:1022800021F4741108430C49486001200B49086689
:10229000FEF738FF054607E03DE0FEF733FF401B41
:1022A000022801D903200FE60348006800F00070FF
:1022B0000028F2D02FE0000000100240000042424F
:1022C0008004424200700040002014490866FEF776
:1022D00019FF054606E0FEF715FF401B022801D94D
:1022E0000320F1E50E48006800F000700028F2D1EC
:1022F00011E0E069012800D1E6E50948466806F4E6
:102300008031206A814204D106F47011606A8142F2
:1023100001D00120D8E50020D6E5000000004242AF
:102320000010024070B504462546681EB0F1807F5B
:1023300001D301200FE0681E4FF0E02148610F211A
:102340004FF0FF3002F0C8FA00204FF0E021886122
:1023500007200861002070BD7047704710B5034624
:10236000002200BF93F83C00012801D1022010BDDB
:10237000012083F83C0000BF22F0FF00CC6840EA57
:10238000040222F440708C6840EA040222F4806067
:102390004C6840EA040222F400600C6840EA04023F
:1023A00022F480500C6940EA040222F400504C6987
:1023B00040EA040222F48040CC6940EA0402186832
:1023C000426400BF002083F83C0000BF00BFCEE79E
:1023D00030B502460B4600BF92F83C00012801D1FF
:1023E000022030BD012082F83C0000BF022082F8AC
:1023F0003D00106844681068816824F07004186813
:10240000044310684460184D1068A8421BD0174D53
:102410001068A84217D01068B0F1804F13D0144D47
:102420001068A8420FD0134D1068A8420BD0124D6F
:102430001068A84207D0114D1068A84203D0104D73
:102440001068A84205D121F0800158680143106846
:102450008160012082F83D0000BF002082F83C002E
:1024600000BF00BFBDE70000002C01400034014068
:102470000004004000080040000C0040004C0140F7
:102480000018004010B504460CB9012010BD94F8A6
:102490003D0028B9002084F83C00204600F026F8D2
:1024A000022084F83D00211D206801F0CFFF0120AB
:1024B00084F8460000BF84F83E0001213F2001550A
:1024C000402001554120015500BF00BF012084F884
:1024D000420043200155442001554520015500BFCD
:1024E000012084F83D000020D0E7000038B5044604
:1024F0001F49206888420DD100BF1E48806940F402
:1025000080101C4988610846806900F480100090A2
:1025100000BF2BE01849206888420DD100BF154844
:10252000806940F40010134988610846806900F40E
:102530000010009000BF19E010492068884215D1B2
:1025400000BF0C48C06940F080000A49C8610846D5
:10255000C06900F08000009000BF00BF002211465B
:102560002C20FFF7E7F92C20FFF7D4F938BD000045
:10257000005001400010024000540140001C004087
:10258000014691F83D00012801D00120704702204A
:1025900081F83D000868C06840F001000B68D86011
:1025A0001A4B086898421BD0194B0868984217D0FC
:1025B0000868B0F1804F13D0164B086898420FD0CE
:1025C000154B086898420BD0144B0868984207D006
:1025D000134B0868984203D0124B086898420CD1FC
:1025E0000868806800F00702062A0CD008680068B6
:1025F00040F001000B68186005E00868006840F0D2
:1026000001000B6818600020C0E70000002C0140AA
:10261000003401400004004000080040000C00406D
:10262000004C01400018004001460868C06820F0D6
:1026300001000A68D06000BF0868006A41F2111208
:10264000104050B90868006A9210104028B9086814
:10265000006820F001000A68106000BF012081F8C6
:102660003D00002070472DE9F04104460D4614B9A5
:102670000120BDE8F08194F83D0028B9002084F8DD
:102680003C00204600F052F8022084F83D0020680B
:10269000806844F20701884321688860211D206812
:1026A00001F0D4FE2068D0F8088020688669206890
:1026B000076A286840EA080840F203308643A9699F
:1026C000A86840EA0120064340F60C4086434FF2DA
:1026D000F0008643E969E86840EA0120064328697A
:1026E0000001296A40EA0130064327F022076969A0
:1026F000686840EA011007432068C0F80880206835
:10270000866120680762012084F8460084F83E0054
:1027100001213F200155012084F84200432001554A
:10272000012084F83D000020A3E7000010B586B02A
:1027300004460020029003900490059068492068A8
:10274000884225D100BF6748806940F40060654930
:1027500088610846806900F40060019000BF00BFF6
:1027600000BF0846806940F004008861084680691F
:1027700000F00400019000BF00BF4FF440700290D1
:1027800000200390049002A95748FEF703FBA4E041
:102790002068B0F1804F45D100BF5248C06940F079
:1027A00001005049C8610846C06900F0010001906D
:1027B00000BF00BF00BF0846806940F00400886188
:1027C0000846806900F00400019000BF00BF00BF10
:1027D0000846806940F0080088610846806900F07A
:1027E0000800019000BF00BF4FF40040029000209D
:1027F0000390049002A93C48FEF7CCFA082002900E
:1028000000200390049002A93848FEF7C3FA00BFE5
:102810003749486820F4407040F0E06040F4807030
:1028200048605AE03349206888422ED100BF2D48C5
:10283000C06940F002002B49C8610846C06900F039
:102840000200019000BF00BF00BF0846806940F051
:10285000080088610846806900F00800019000BF08
:1028600000BF3020029000200390049002A91F486E
:10287000FEF790FA00BF1E49486820F4406040F01F
:10288000E06040F40060486027E01B49206888420F
:1028900023D100BF1348C06940F004001149C8614A
:1028A0000846C06900F00400019000BF00BF00BFEF
:1028B0000846806940F0080088610846806900F099
:1028C0000800019000BF00BFC020029000200390CC
:1028D000049002A90548FEF75DFA06B010BD00009D
:1028E000002C01400010024000080140000C014093
:1028F0000000014000040040000800402DE9F043C2
:1029000004460D4694F83E603F20075D94F84280EF
:10291000432010F804906DB9012E02D1B8F1010FD7
:1029200002D00120BDE8F083022084F83E0084F844
:10293000420025E0042D0CD1012F02D1B9F1010F85
:1029400001D00120EEE702213F200155432001552F
:1029500016E0012E07D1012F05D1B8F1010F02D1E8
:10296000B9F1010F01D00120DCE7022084F83E001C
:1029700002213F200155022084F8420043200155E6
:1029800015B1042D0CD105E001220021206801F0D1
:10299000D1FD10E001220421206801F0CBFD0AE006
:1029A00001220021206801F0C5FD012204212068D8
:1029B00001F0C0FD00BF00BF2068006840F00100CA
:1029C000216808600020ADE7704770B504462068B4
:1029D000C5682068066906F00200022819D105F0D2
:1029E0000200022815D1401F2168086101202077CC
:1029F0002068806900F0030018B12046FFF7E4FF6B
:102A000005E0204600F044F9204600F049FA002095
:102A1000207706F00400042819D105F004000428EA
:102A200015D1C043216808610220207720688069A1
:102A300000F4407018B12046FFF7C6FF05E02046BD
:102A400000F026F9204600F02BFA0020207706F04F
:102A50000800082819D105F00800082815D1C0433E
:102A600021680861042020772068C06900F0030015
:102A700018B12046FFF7A8FF05E0204600F008F94E
:102A8000204600F00DFA0020207706F010001028F4
:102A900019D105F01000102815D1C0432168086134
:102AA000082020772068C06900F4407018B12046E3
:102AB000FFF78AFF05E0204600F0EAF8204600F024
:102AC000EFF90020207706F0010048B105F0010081
:102AD00030B16FF0010021680861204600F068FA0B
:102AE00006F08000802809D105F08000802805D1FB
:102AF000C043216808612046FFF72EFC06F0400025
:102B0000402809D105F04000402805D1C043216884
:102B10000861204600F0A2FA06F02000202809D122
:102B200005F02000202805D1C04321680861204617
:102B3000FFF713FC70BD000010B586B004460020FE
:102B4000029003900490059048492068884218D16B
:102B500000BF4748806940F0040045498861084645
:102B6000806900F00400019000BF00BF03200290C4
:102B7000022003900320059002A93E48FEF70AF9BF
:102B800072E03D492068884218D100BF384880690A
:102B900040F01000364988610846806900F0100056
:102BA000019000BF00BFC0200290022003900320CC
:102BB000059002A93148FEF7EDF855E0304920684C
:102BC000884218D100BF2A48806940F00400284993
:102BD00088610846806900F00400019000BF00BFD2
:102BE0000C200290022003900320059002A92148A6
:102BF000FEF7D0F838E023492068884218D100BF9A
:102C00001B48806940F008001949886108468069BE
:102C100000F00800019000BF00BF8815029002205C
:102C200003900320059002A91748FEF7B3F81BE0B4
:102C300016492068884217D100BF0D48806940F0CE
:102C400008000B4988610846806900F0080001907F
:102C500000BF00BF4815029002200390032005909A
:102C600002A90948FEF796F806B010BD000C004016
:102C700000100240000801400034014000100140F3
:102C8000004C014000500140000C01400054014044
:102C900070472DE9F04104460D461646002700BF57
:102CA00094F83C00012802D10220BDE8F081012007
:102CB00084F83C0000BF36B1042E1BD0082E31D062
:102CC0000C2E5ED145E02946206801F045FC2068C5
:102CD000806940F00800216888612068806920F0E0
:102CE0000400216888612068806929690843216897
:102CF000886148E02946206801F066FC2068806908
:102D000040F40060216888612068806920F4806058
:102D10002168886120688069296940EA012021686A
:102D2000886130E02946206801F08CFC2068C06989
:102D300040F008002168C8612068C06920F00400E4
:102D40002168C8612068C069296908432168C86191
:102D500019E02946206801F0B1FC2068C06940F400
:102D600000602168C8612068C06920F48060216823
:102D7000C8612068C069296940EA01202168C861EA
:102D800001E0012700BF00BF00BF002084F83C0025
:102D900000BF384689E710B504460CB9012010BDC4
:102DA00094F83D0028B9002084F83C00204600F04B
:102DB00025F8022084F83D00211D206801F046FB23
:102DC000012084F8460000BF84F83E0001213F2026
:102DD0000155402001554120015500BF00BF012091
:102DE00084F84200432001554420015545200155F7
:102DF00000BF012084F83D000020D0E738B504462C
:102E00002349206888420DD100BF2248C06940F0A4
:102E100008002049C8610846C06900F00800009019
:102E200000BF34E01C49206888421ED100BF194809
:102E3000806940F40050174988610846806900F4B1
:102E40000050009000BF00BF002211462C20FEF76A
:102E500071FD2C20FEF75EFD002211462D20FEF7AD
:102E600069FD2D20FEF756FD11E00C4920688842CF
:102E70000DD100BF0748806940F4002005498861F2
:102E80000846806900F40020009000BF00BF38BDF4
:102E9000000C00400010024000340140004C014092
:102EA0007047000070B504460D4615B994F83E0011
:102EB0000BE0042D02D13F20005D06E0082D02D179
:102EC0004020005D01E04120005D012801D001208B
:102ED00070BD1DB9022084F83E000EE0042D03D120
:102EE00002213F20015508E0082D03D10221402096
:102EF000015502E0022141200155012229462068A6
:102F000001F018FB23492068884203D02249206839
:102F1000884201D1012000E0002028B12068406CE7
:102F200040F40040216848641A49206888421BD058
:102F300019492068884217D02068B0F1804F13D01B
:102F40001649206888420FD01549206888420BD066
:102F500014492068884207D013492068884203D06A
:102F60001249206888420CD12068806800F007066A
:102F7000062E0CD02068006840F00100216808602F
:102F800005E02068006840F001002168086000202A
:102F90009EE70000002C0140003401400004004086
:102FA00000080040000C0040004C014000180040A8
:102FB00010B50446194884422ED11948C169884782
:102FC0001748807917490978884206D101201649A7
:102FD000087001021548FEF785F81549154802F0FA
:102FE000A5F91548006B154908601548006B486045
:102FF0001448006B88601448006BC8600C4802F0ED
:10300000FBFD1248416A8847114A124B124903C915
:10301000FDF794F9104A03C210BD00008803002098
:10302000EC080020480000200000002000100140B3
:1030300028000020F0060020FC06002038000020B8
:1030400064070020CC070020340800209C080020E2
:103050007B14AE47E17A843F08000020704710B52A
:1030600004460CB9012010BDA06900B100E000BF0A
:1030700094F8410028B9002084F84000204600F070
:1030800029F8242084F841002068C06820F400500A
:103090002168C860204601F063FB2068006920F4C5
:1030A0009040216808612068406920F02A0021686A
:1030B00048612068C06840F400502168C860002062
:1030C0006064202084F8410084F84200002060639E
:1030D00000BFC8E710B586B00446002002900390F8
:1030E000049005901F492068884239D100BF1E48CE
:1030F000C06940F480201C49C8610846C06900F4DA
:103100008020019000BF00BF00BF0846806940F0EA
:10311000100088610846806900F01000019000BF2F
:1031200000BF08150290022003900320059002A919
:103130000E48FDF72FFE4FF4006002900020039030
:10314000049002A90948FDF725FE00BF0849486818
:1031500020F0300040F0E06040F01000486000BF18
:1031600006B010BD004800400010024000100140B1
:103170000000014000BFFEE7014608684069C0F357
:103180008020B0B16FF480600A685061002008634D
:10319000202081F83D00002081F83E00086C40F0BE
:1031A0000400086400BF002081F83C0000BF01203B
:1031B00070470020FCE700002DE9F84304460D4667
:1031C00090461E46E76A2068006840F480602168E7
:1031D0000860082F04D0012F02D017F5803F06D1D8
:1031E0002068006840F480702168086008E0206B67
:1031F000112805D12068006840F4807021680860BB
:10320000434600224FF001112046009600F003F9DA
:1032100060B12068006800F48070B0F5807F02D152
:103220004FF4007020640320BDE8F8832069B0F5F6
:10323000804F05D1E8B240F001002168086149E003
:1032400005F44070F02141EAE0102168086133463E
:1032500042462649204600F03DF908B10120E3E747
:10326000E8B221680861334642462049891F20465A
:1032700000F030F908B10120D6E700BF002000902F
:1032800020684069009020688069009000BF00BFFE
:103290002068006840F4807021680860434600227E
:1032A0004FF001112046009600F0B5F858B12068A3
:1032B000006800F48070B0F5807F02D14FF4007098
:1032C00020640320B0E705F44070F12141EAE010EA
:1032D00021680861334642460449891F204600F0B0
:1032E000F9F808B101209FE700209DE708000100E0
:1032F0002DE9F84304460D4617469846E66A082E1F
:1033000004D0012E02D016F5803F06D12068006857
:1033100040F480702168086008E0206B122805D115
:103320002068006840F48070216808603B460022F5
:103330004FF001112046CDF8008000F06CF860B12C
:103340002068006800F48070B0F5807F02D14FF4EF
:10335000007020640320BDE8F8832069B0F5804F39
:1033600004D105F0FE002168086112E005F4407008
:10337000F02141EAE0102168086143463A460B49D2
:10338000204600F0A7F808B10120E4E7E8B2216880
:10339000086143463A460549891F204600F09AF8DD
:1033A00008B10120D7E70020D5E7000008000100A0
:1033B00070B504460D46164625E02046FFF7DCFEB4
:1033C00008B1012070BD681CE8B1FDF79BFE801BB1
:1033D000A84200D8BDB920684069C0F3800090B908
:1033E00000202063202084F83D00002084F83E0067
:1033F000206C40F02000206400BF002084F83C00D6
:1034000000BF0120DEE720684069C0F3800000288B
:10341000D3D00020D6E72DE9F04104460D461746EB
:103420001E46DDF8188038E0701CA8B3FDF76AFE70
:10343000A0EB0800B04200D876BBC5F307400128D6
:103440000AD120684069A9B20840A9B2884201D1D6
:1034500001200BE0002009E020688069A9B2084043
:10346000A9B2884201D1012000E00020B84214D165
:1034700000202063202084F83D00002084F83E00D6
:10348000206C40F02000206400BF002084F83C0045
:1034900000BF0120BDE8F081FFE7C5F30740012828
:1034A0000AD120684069A9B20840A9B2884201D176
:1034B00001200BE0002009E020688069A9B20840E3
:1034C000A9B2884201D1012000E00020B842ABD06F
:1034D0000020DFE72DE9F04104460D4616461F4661
:1034E00058E020684069C0F38020E8B12068006897
:1034F00040F40070216808606FF4806021684861C2
:1035000000202063202084F83D00002084F83E0045
:10351000206C40F00400206400BF002084F83C00D0
:1035200000BF0120BDE8F081701C90B3FDF7EAFDFB
:10353000C01BB04200D866BBC5F3074001280AD1C2
:1035400020684069A9B20840A9B2884201D101208F
:103550000BE0002009E020688069A9B20840A9B208
:10356000884201D1012000E0002090B900202063B2
:10357000202084F83D00002084F83E00206C40F0BC
:103580002000206400BF002084F83C0000BF012020
:10359000C8E7FFE7C5F3074001280AD12068406962
:1035A000A9B20840A9B2884201D101200BE0002055
:1035B00009E020688069A9B20840A9B2884201D117
:1035C000012000E0002000288BD00020AAE770B581
:1035D00004460D46164637E020684069C0F30010E7
:1035E000A0B16FF010002168486100202063202006
:1035F00084F83D00002084F83E00206C206400BF69
:10360000002084F83C0000BF012070BDFDF77AFD6A
:10361000801BA84200D8BDB920684069C0F3801063
:1036200090B900202063202084F83D00002084F819
:103630003E00206C40F02000206400BF002084F891
:103640003C0000BF0120E0E720684069C0F3801023
:103650000028C1D00020D8E770B504460D461646B4
:1036600025E02046FFF788FD08B1012070BD681CE9
:10367000E8B1FDF747FD801BA84200D8BDB920681E
:103680004069C0F3C01090B900202063202084F866
:103690003D00002084F83E00206C40F020002064B3
:1036A00000BF002084F83C0000BF0120DEE7206856
:1036B0004069C0F3C0100028D3D00020D6E7000036
:1036C0000EB5002000900190029012481249086047
:1036D000002111488160017301754FF46021C161BF
:1036E00000200D49486001210B480161FDF756FAA1
:1036F00008B1FDF7A0F905200090012001900020FD
:10370000029069460448FDF799F908B1FDF793F96D
:103710000EBD0000002401407C00002000B585B0F3
:103720000020019002900390049000BF44488069FB
:1037300040F01000424988610846806900F010009E
:10374000009000BF00BF00BF0846806940F0200025
:1037500088610846806900F02000009000BF00BF2B
:1037600000BF0846806940F004008861084680690F
:1037700000F00400009000BF00BF00BF0846806951
:1037800040F0080088610846806900F00800009059
:1037900000BF00BF01224FF460412A48FDF7ACFC96
:1037A000002241F210312748FDF7A6FC0022042137
:1037B0002548FDF7A1FC4EF2103001900120029047
:1037C000002003900220049001A91E48FDF7E2FAB0
:1037D0002F20019000200290039001A91948FDF7C5
:1037E000D9FA03200190002002900120039001A942
:1037F0001648FDF7CFFA4FF4704001900020029078
:10380000039001A91148FDF7C5FA4FF480500190CB
:1038100011200290002003900220049001A9094881
:10382000FDF7B8FA042001901120029000200390C7
:103830000220049001A90448FDF7ACFA05B000BDD0
:10384000001002400010014000140140000C014033
:1038500010B50B480B4908600B4848600021094827
:103860008160C1604FF4804101610021416181614B
:10387000C1610162FDF74CFC08B1FDF7DCF810BD39
:1038800000580040AC000020801A060000B587B048
:103890001C216846FCF77FFC154816490860472044
:1038A000486000211348816040F2E731C160002187
:1038B00001618161FEF7E6FD08B1FDF7BCF80D4836
:1038C000FFF769FA08B1FDF7B6F860200090002014
:1038D000019002900490002269460648FFF7D9F94A
:1038E00008B1FDF7A8F80348FFF726F907B000BDB7
:1038F00000500140F802002000B587B01C21684646
:10390000FCF749FC1548164908604720486000212B
:103910001348816040F2E731C1600021016181619B
:10392000FEF7B0FD08B1FDF786F80D48FFF733FA52
:1039300008B1FDF780F8602000900020019002900F
:103940000490002269460648FFF7A3F908B1FDF785
:1039500072F80348FFF7F0F807B000BD00540140CB
:103960004003002010B50A480A4908604720486013
:1039700000210848816042F20F71C160002101619D
:103980008161FEF77FFD08B1FDF755F810BD00001D
:10399000001C00408803002000B58BB0242102A841
:1039A000FCF7F9FB002000900190184818490860C6
:1039B000002048600021164881604FF6FF71C16009
:1039C000002101614161816101200290002003908A
:1039D0000120049000200590069007900120089097
:1039E000002009900A9002A90948FEF73CFE08B1A0
:1039F000FDF721F800200090019069460448FEF789
:103A0000E7FC08B1FDF717F80BB000BD002C014032
:103A10000001002000B58BB0242102A8FCF7BBFBFD
:103A20000020009001904FF080401749086000206E
:103A300048600021144881604FF6FF71C160002189
:103A40000161816101200290002003900120049017
:103A50000020059006900790012008900020099012
:103A60000A9002A90848FEF7FEFD08B1FCF7E3FF43
:103A700000200090019069460348FEF7A9FC08B1B8
:103A8000FCF7D9FF0BB000BD4801002000B58BB09A
:103A9000242102A8FCF77FFB002000900190184829
:103AA00018490860002048600021164881604FF6E0
:103AB000FF71C1600021016181610120029000203D
:103AC00003900120049000200590069007900120AB
:103AD0000890002009900A9002A90A48FEF7C3FD49
:103AE00008B1FCF7A8FF0020009001906946054846
:103AF000FEF76EFC08B1FCF79EFF0BB000BD0000A6
:103B0000000400409001002000B58BB0242102A8E1
:103B1000FCF741FB0020009001901848184908600C
:103B2000002048600021164881604FF6FF71C16097
:103B30000021016181610120029000200390012099
:103B40000490002005900690079001200890002026
:103B500009900A9002A90A48FEF785FD08B1FCF712
:103B60006AFF00200090019069460548FEF730FC8E
:103B700008B1FCF760FF0BB000BD0000000800407A
:103B8000D801002000B589B00020079008901C21C2
:103B90006846FCF700FB1C481C4908604720486049
:103BA00000211A48816040F2E731C16000210161C3
:103BB0008161FFF7F0F808B1FCF73DFF00200790A6
:103BC000089007A91148FEF703FC08B1FCF733FF82
:103BD000602000900020019002900490002269462D
:103BE0000A48FFF756F808B1FCF725FF042269469A
:103BF0000648FFF74EF808B1FCF71DFF0348FEF733
:103C00009BFF09B000BD0000000C00402002002016
:103C100000B591B000200F9010901C2108A8FCF76F
:103C2000BAFA20216846FCF7B6FA27482749086007
:103C30004720486000212548816040F2E731C1609B
:103C40000021016141618161FFF7A5F808B1FCF72E
:103C5000F2FE00200F9010900FA91C48FEF7B8FB51
:103C600008B1FCF7E8FE60200890002009900A9057
:103C70000B900C900D900E90002208A91348FFF7AE
:103C800008F808B1FCF7D7FE042208A90F48FFF78F
:103C900000F808B1FCF7CFFE0020009001900290E0
:103CA000039004904FF4005005900020079069465F
:103CB0000648FEF753FB08B1FCF7BDFE0348FEF7CC
:103CC0003BFF11B000BD000000340140680200203D
:103CD00000B587B01C216846FCF75DFA1648174905
:103CE00008604720486000211448816040F2E731B5
:103CF000C160002101618161FFF74DF808B1FCF757
:103D00009AFE602000900020019002900490002212
:103D100069460A48FEF7BDFF08B1FCF78CFE042295
:103D200069460648FEF7B5FF08B1FCF784FE034874
:103D3000FEF702FF07B000BD004C0140B0020020BA
:103D400010B50B480B4908604FF4E1304860002182
:103D500008488160C16001610C21416100218161DD
:103D6000C161FFF77CF908B1FCF765FE10BD0000EA
:103D700000480040D003002010B5094809490860F8
:103D80000820087102210748817100218172C172E7
:103D90000173FDF721FE08B1FCF74DFE10BD0000D8
:103DA000005C00401804002000BFFEE700BFFEE7F3
:103DB00070B50646002410E000222146304600F08F
:103DC00087F8002505E00021304600F0DDF9681C89
:103DD000C5B2802DF7DB601CC4B2082CECDB70BDD3
:103DE00070B50646002406E0002500E06D1CB5F520
:103DF0007A7FFBD3641CB4F57A7FF5D3AE213046CD
:103E000000F0B0F9D521304600F0ACF98021304601
:103E100000F0A8F9A821304600F0A4F93F2130466F
:103E200000F0A0F9D321304600F09CF90021304683
:103E300000F098F94021304600F094F9A121304675
:103E400000F090F9C821304600F08CF9DA213046B4
:103E500000F088F91221304600F084F981213046C3
:103E600000F080F9CF21304600F07CF9D9213046AE
:103E700000F078F9F121304600F074F9DB2130468A
:103E800000F070F93021304600F06CF9A421304682
:103E900000F068F9A621304600F064F98D21304623
:103EA00000F060F91421304600F05CF9AF21304693
:103EB00000F058F93046FFF77BFF70BD10B50246A1
:103EC000012000E050430B1EA1F10101FAD110BD09
:103ED00070B506460D46144645F0B001304600F078
:103EE00041F9102040EA1411304600F03BF904F08B
:103EF0000F01304600F036F970BD00002DE9F041A9
:103F000080460D4616461F46701EC006020E681EED
:103F10004006010E4046FFF7DBFF00240AE0A7F150
:103F20002000144A02EB0010015D404600F02CF91D
:103F3000601CC4B2082CF2DB701EC006020E681EA4
:103F4000012303EB4000C1B24046FFF7C1FF00244C
:103F50000CE0A7F12000074A02EB001204F1080070
:103F6000115C404600F010F9601CC4B2082CF0DB74
:103F7000BDE8F081026200082DE9F04780468946DD
:103F800015461E46089F002416E0381B411E0A20D5
:103F9000FFF794FFB6FBF0F00A21B0FBF1F201FB52
:103FA000120000F1300A2819C2B253464946404671
:103FB000FFF7A4FF601CC4B2BC42E6DBBDE8F0879B
:103FC0002DE9FF4FD1B0894692469B465F9C2E4813
:103FD000007828B95198FFF7EBFE01202A490870B4
:103FE0005846FCF780FB05460E465046FCF77BFB27
:103FF000074688464846FCF776FB02460B46CDE965
:104000000078CDE90256CDE9040120A138A800F0DE
:1040100047FC22A11FA85E9A00F042FC3C2094FBC2
:10402000F0F100FB11454FF4616094FBF0F100FBEF
:1040300011403C2190FBF1F64FF4616094FBF0F7E6
:1040400033463A4618A106A8009500F029FC38AB83
:1040500001221146519800F031F81FAB01220221D4
:10406000519800F02BF806AB01220321519800F083
:1040700025F80320009001220421609B5198FFF74E
:104080007BFF55B0BDE8F08F61000020252E316622
:1040900020252E316620252E316600006469737458
:1040A0003A2564206D00000074696D653A25643A14
:1040B000253032643A253032640000002DE9F041A9
:1040C0000746884616461D46002408E02B5D301939
:1040D000C2B241463846FFF711FF601CC4B2285DEA
:1040E0000028F3D1BDE8F08110B5044610480078EF
:1040F00028B92046FFF75CFE01200D4908700DA38A
:10410000012211462046FFF7D9FF0DA3012202210B
:104110002046FFF7D3FF0DA3012203212046FFF71E
:10412000CDFF0DA3012204212046FFF7C7FF10BDDC
:1041300060000020536D61727420436172000000C2
:1041400030342034362034392033310032303235A7
:104150002F322F3236000000426C6F636B3A2031F1
:10416000000000007CB505460C46002001908DF84B
:1041700005404FF47A70022301AA78210090284666
:10418000FDF764FA7CBD00007CB505460C4607A02F
:10419000006801908DF805404FF47A70022301AA5F
:1041A000782100902846FDF751FA7CBD40000000C0
:1041B0007047000008B508490968C9084FF47A72C9
:1041C000B1FBF2F14143009100BF00BF00994A1ECC
:1041D00000920029F9D108BD5C000020F0B505ACC3
:1041E00070CC0160436085608281C48106820027B3
:1041F0008774014F4761F0BDE15E0008704710B55C
:10420000FDF718FB10BD00B595B028210BA8FBF7F2
:10421000C2FF142106A8FBF7BEFF18216846FBF772
:10422000BAFF01200B9000040C9000200D9001209B
:104230000F9002201290C1031391C10414910BA896
:10424000FDF73EFE08B1FCF7F6FB0F2006900220BA
:104250000790002008904FF48060099000200A9099
:10426000022106A8FDF706FD08B1FCF7E4FB1220C9
:1042700000904FF400400290002005906846FDF742
:1042800061FC08B1FCF7D7FB15B000BD704738B52D
:1042900004460120009001236A460021204600F0D8
:1042A0009DF80320009001236A460021204600F07B
:1042B00095F838BDF8B504460D460020009002235D
:1042C0006A462946204600F059F89DF800009DF8FE
:1042D000011040EA01263046F8BD38B505460C46C7
:1042E0000120009001236A461321284600F046F879
:1042F0009DF8000000F00100A8B114212846FFF746
:10430000D9FF208016212846FFF7D4FF60801821AE
:104310002846FFF7CFFFA0801A212846FFF7CAFFE3
:10432000E080012038BD0020FCE738B504460020BD
:10433000009001236A461221204600F01FF89DF8E4
:1043400000004D2801D1012000E000209DF8001060
:10435000442901D1012100E00021084360B1EB2193
:10436000204600F032F80021204600F025F82046D3
:10437000FFF78DFF012038BD0020FCE77FB582B03C
:10438000044615461E469DF80C0040F08000039040
:104390004FF47A70012303AA522100902046FDF7C2
:1043A00055F94FF47A7033462A4652210090204640
:1043B000FCF796FF06B070BD13B50446012301AAB1
:1043C0000F21204600F00AF81CBD13B50446012356
:1043D00001AA1946204600F001F81CBD2DE9FF4155
:1043E00080460E4617461D4600200190029003901D
:1043F000002446F080008DF80400012405E0601ED2
:10440000385C01A90855601CC4B2AC42F7DD4FF41A
:104410007A706B1C01AA522100904046FDF716F9F4
:10442000BDE8FF8110B50248FEF7CFFA10BD0000CD
:104430006802002010B50348FEF7C7FA0248FEF7ED
:10444000C4FA10BD680200208803002010B502687D
:104450002D4B98420ED02D4B98420BD0B0F1804F8F
:1044600008D02B4B984205D02A4B984202D02A4BB9
:10447000984203D122F070024B681A43224B9842B3
:1044800020D0224B98421DD0B0F1804F1AD0204B43
:10449000984217D01F4B984214D01F4B984211D00E
:1044A0001E4B98420ED01E4B98420BD01D4B98428B
:1044B00008D01D4B984205D01C4B984202D01C4B93
:1044C000984203D122F44072CB681A4322F0800351
:1044D0004C6943EA040202608B68C3620B68836222
:1044E000094B984202D0094B984201D10B690363F2
:1044F00001234361036903F001031BB1036923F046
:104500000103036110BD0000002C01400034014094
:104510000004004000080040000C0040004C014036
:10452000005001400054014000180040001C0040B1
:104530000020004030B501F01F05012404FA05F306
:10454000046A9C430462046A01F01F0502FA05F53F
:104550002C43046230BD000030B5026A056A25F0C4
:10456000010505624368846924F0700424F00304A3
:104570000D682C4322F002028D682A43104DA84298
:1045800000D103E00F4DA84206D100BF22F008027F
:10459000CD682A4322F00402094DA84202D0094DF9
:1045A000A84207D123F4807323F400734D692B4391
:1045B0008D692B43436084614D684563026230BD61
:1045C000002C01400034014030B5026A056A25F034
:1045D000100505624368846924F4E04424F44074BF
:1045E0000D6844EA052422F020028D6842EA051293
:1045F000124DA84200D103E0114DA84207D100BFDF
:1046000022F08002CD6842EA051222F040020B4DF2
:10461000A84202D00A4DA84209D123F4806323F4B2
:1046200000634D6943EA85038D6943EA850343606E
:1046300084614D688563026230BD0000002C01403A
:104640000034014030B5026A056A25F480750562C0
:104650004368C46924F0700424F003040D682C43FB
:1046600022F400728D6842EA0522124DA84200D160
:1046700003E0114DA84207D100BF22F40062CD68CB
:1046800042EA052222F480620A4DA84202D00A4D75
:10469000A84209D123F4805323F400534D6943EA1F
:1046A00005138D6943EA05134360C4614D68C56312
:1046B000026230BD002C01400034014030B5036A75
:1046C000056A25F4805505624468C26922F4E04217
:1046D00022F440720D6842EA052223F400538D68EB
:1046E00043EA0533084DA84202D0084DA84204D140
:1046F00024F480444D6944EA85144460C2614D68E5
:104700000564036230BD0000002C0140003401400C
:1047100010B50446206830B1207E2077218A2068B9
:10472000FCF7D8FC2076606830B1607E6077618AE3
:104730006068FCF7CFFC6076A06830B1A07EA077FF
:10474000A18AA068FCF7C6FCA076E06830B1E07EE4
:10475000E077E18AE068FCF7BDFCE07610BD000080
:1047600070B504462168096921F44051E26811439B
:10477000226811612269A1681143626941EA020558
:104780002168C96841F20C62914329432268D160D3
:104790002168496921F44071A2691143226851617D
:1047A0002D4A2168914202D1FDF740FB01E0FDF75F
:1047B0002DFB00EBC00101EB001162689200B1FB20
:1047C000F2F100EBC00202EB001263689B00B2FB47
:1047D000F3F26423B2FBF3F202EBC20303EB021227
:1047E000A1EB8201322202EB01116422B1FBF2F152
:1047F00001F0F00100EBC00202EB001263689B00C5
:10480000B2FBF3F26423B2FBF3F201EB021200EB12
:10481000C00101EB001163689B00B1FBF3F100EBF9
:10482000C00303EB00136668B600B3FBF6F364261F
:10483000B3FBF6F303EBC30606EB0313A1EB830113
:10484000322303EB01116423B1FBF3F101F00F01FB
:1048500011442268916070BD0038014010B50446D3
:10486000002010BD01460020704710B5044601200D
:1048700024F8400F00202080A0802082403C10BD02
:1048800001464FF43F42B1F840009043A1F8400088
:104890000020704702460020704700BFFEE700007E
:1048A0000FB4084B10B504A902AA039800F028F928
:1048B000044602A9002000F0BAFC204610BC5DF8B6
:1048C00014FB00002F52000802480068C0F30220C9
:1048D000704700000CED00E010B5002804DB0A076B
:1048E000130E054A135406E00A07140E034A00F09B
:1048F0000F031B1FD45410BD00E400E018ED00E0CE
:1049000000210160416081600162818481620163F4
:104910000949C1630949016409494164094981643C
:104920000949C16409490165094941650949816528
:104930000949416670470000455C0008515C000869
:104940004B5C0008A55D0008AD5D0008A95D00088E
:10495000775C00080D550008195B000802E008C8E4
:10496000121F08C1002AFAD170477047002001E0E9
:1049700001C1121F002AFBD1704700002DE9FF5F23
:1049800082B00021DDE90430020DDDF840B00343C0
:1049900018D044F61050A2F2FF3242431514119879
:1049A00001281FD0A5EB0B00401C5FEA000A4FF066
:1049B00000064E4FDFF83891B046504615D5CAF183
:1049C000000413E0119801244AA3012801D16FEAE1
:1049D0000B010298119AC0E90031C0E9024206B009
:1049E000BDE8F09FCBF10000DFE704460021404A1C
:1049F000491842EB0450CDE9001012E0E00707D05F
:104A000032463B4640464946FBF73FFD80468946D5
:104A100032463B4610461946FBF737FD06460F4621
:104A20006410002CEAD1DDE90401DDE90023BAF1CC
:104A3000000F06DAFBF729FD42464B46FBF725FD42
:104A400005E0FBF794FD42464B46FBF790FD04461C
:104A50000E460022284BFBF759FE03D84FF0FF30DB
:104A6000014607E00022254B20463146FBF766FC55
:104A7000FBF786FF102409E0002C0ADB0A22002342
:104A8000FBF798FE039B30321A55641E50EA010270
:104A9000F2D1641C039AC4F111031444119A012A3F
:104AA00003D0012208430DD10AE0084304D00020BE
:104AB0004FF0110B119072E7A3EB0B056D1E0DE08B
:104AC0005B4504DD4FF0000205F1010504E003DA67
:104AD0004FF00002A5F10105002AECD002981199CF
:104AE000C0E90231C0E9004579E700000000144048
:104AF0000000F03F300000000000F0430000E03F05
:104B00002DE9FF4F95B09B468946064600250FE2EA
:104B1000252877D100242746F84A0121059400E092
:104B2000044316F8013F203B01FA03F01042F7D18D
:104B300030782A2811D06FF02F033078A0F130029E
:104B4000092A16D8059A44F0020402EB820203EB0C
:104B500042021044761C0590EFE759F8042B0592A9
:104B6000002A03DA504244F40054059044F0020451
:104B7000761C30782E2816D116F8010F44F0040464
:104B80002A280DD06FF02F023078A0F13003092BC6
:104B900009D807EB870302EB4303C718761CF3E73A
:104BA00059F8047B761C30786C280FD006DC4C2832
:104BB00017D068280DD06A2814D104E0742810D0CA
:104BC0007A280FD10DE044F400140AE044F4801474
:104BD00001E044F440147278824202D104F580145A
:104BE000761C761C307866280BD013DC582877D0DA
:104BF00009DC002875D04528F6D04628F4D047288F
:104C00001AD19DE118E0632835D0642879D0652851
:104C100012D195E1702873D008DC6728F1D069289B
:104C20006FD06E280DD06F2806D1B5E073282CD038
:104C3000752875D0782874D05A46179990476D1CFE
:104C400075E1C4F30250022809D003280DD0D9F829
:104C5000001004280DD00D6009F1040967E1D9F8AE
:104C60000010EA17C1E90052F6E7D9F800100D80EC
:104C7000F2E70D70F0E719F8041B8DF80010002022
:104C80008DF80100EA46012003E059F804AB4FF02B
:104C9000FF3061074FF0000102D40DE008F101017F
:104CA0008846B9420FDA8045F8DB1AF80810002967
:104CB000F4D108E008F1010188468142FADB1AF8D4
:104CC00008100029F6D105985B46A0EB080721469D
:104CD0003846179A00F094FA284400EB080507E0DC
:104CE0004DE029E10DE01AF8010B5A46179990475B
:104CF000B8F10108F7D25B4621463846179A13E10E
:104D000042E00A220092C4F302524FF0000A022A43
:104D100008D059F804CB032A4FEAEC710AD00DE011
:104D200029E02AE009F1070121F00702F2E802C1B7
:104D3000914609E00FFA8CFC4FEAEC71042A03D18A
:104D40004FFA8CFC4FEAEC71002907DA0A46002181
:104D5000DCF1000C61EB02012D2202E0220504D5FA
:104D60002B228DF80420012203E0E20701D020224B
:104D7000F7E7904659E00A2102E010220DE01021E9
:104D80004FF0000A00910BE010224FF0000A44F0AF
:104D900004040827009203E008224FF0000A009262
:104DA000C4F30252022A05D059F804CB0021032A89
:104DB00008D009E009F1070121F00702F2E802C179
:104DC000914605E01FFA8CFC042A01D10CF0FF0C7F
:104DD0004FF00008220728D5702806D0009B83F0EA
:104DE000100353EA0A0305D00EE040228DF8042098
:104DF000012208E05CEA010206D030228DF804208E
:104E00008DF8050002229046009B83F0080353EAC8
:104E10000A030AD15CEA010201D1620705D53022FA
:104E20008DF804204FF001087F1E582804D034A0CC
:104E300003900EA802900DE036A0F9E753466046B5
:104E4000009AFBF7B7FC84460398825C0298401EE8
:104E5000029002705CEA0100F0D1029806A9081ADB
:104E600000F1200A600702D524F4803400E0012715
:104E7000574502DDA7EB0A0000E0002000EB0A0125
:104E8000009005984144401A0590E00306D45B4623
:104E90002146179A059800F0B3F90544002706E06B
:104EA00001A85A46C05D179990476D1C7F1C474565
:104EB000F6DBE0030CD55B462146179A059800F017
:104EC0009FF9054404E030205A46179990476D1C1D
:104ED0000099481E00900029F5DC08E0029802992C
:104EE0005A460078491C0291179990476D1CBAF1F7
:104EF0000001AAF1010AF1DC65E1000009280100C6
:104F0000303132333435363738396162636465663F
:104F10000000000030313233343536373839414201
:104F2000434445460000000000F058F90544761C53
:104F3000307800287FF4ECAD19B02846BDE8F08F3A
:104F4000620700D4062709F1070222F0070CFCE8EB
:104F50000223E14603F000485FEA080C02D00FF29A
:104F6000702C0DE05FEA045C02D50FF2682C07E0BC
:104F70005FEAC47C02D00FF2602C01E0AFF2700C4B
:104F80004FF0FF3823F00043CDF850C065280CD017
:104F900006DC452809D046281DD047283DD13DE0F4
:104FA000662818D067287ED138E00021112F01DB58
:104FB000112000E0781CCDE9000106A90EA8FFF73A
:104FC000DDFCDDE90F010E9A03910021009207F14B
:104FD000010A04914DE04FF000400097CDE9011027
:104FE00006A90EA8FFF7CAFCDDE90F0203920E9B8B
:104FF00011990022DDF80CA00093049211B9791CDC
:1050000000EB010AB7EB0A0004D4C0F1FF3007F14E
:10501000010A0490AAEB0700019044E0012F00DA96
:1050200001270021112F01DD112000E03846CDE9D4
:10503000000106A90EA8FFF7A1FCDDE90F010E9AF9
:105040000391002104910092BA4621070CD40399E0
:10505000514500DA8A46BAF1010F05DD009AAAF13E
:105060000101515C302908D0B84202DA10F1040F76
:1050700006DA0121CDE9011015E0AAF10101E9E705
:10508000002805DC049901440491AAEB000102E028
:10509000411C514500DD8A460499401A401C01908C
:1050A0004FF000400290200704D40198504501DBE6
:1050B000CDF8048000208DF84F0002980DF14F07C5
:1050C000B0F1004F25D02B200E9002984FF002082F
:1050D00000280CDA404202902D200E9007E00A21B1
:1050E0000298FBF751FB3031029007F8011DB8F12F
:1050F0000001A8F10108F2DC02980028EFD1791E26
:105100000E980870307800F0200040F0450007F855
:10511000020D12A8C01B00F107081498007800B116
:10512000012000EB0A01019801EBE0710598414470
:10513000401A401E0590E00306D45B462146179AAC
:10514000059800F05DF805441498007818B15A46A7
:10515000179990476D1CE00324D55B462146179AAA
:10516000059800F04DF805441CE00498002807DB82
:10517000DDE90301884203DD0098405C179901E0F6
:10518000179930205A469047049805F10105401CB4
:1051900004900198401E019004D12E205A46179980
:1051A00090476D1CBAF10001AAF1010ADDDC05E0AF
:1051B00017F8010B5A46179990476D1CB8F100017A
:1051C000A8F10108F4DC5B462146179A0598ABE686
:1051D0002D0000002B000000200000002DE9F04110
:1051E000044600251E461746880404D405E03946C7
:1051F0002020B0476D1C641EF9D52846BDE8F0811B
:105200002DE9F041044600251E469046C80301D50D
:10521000302700E02027880404D505E041463846C1
:10522000B0476D1C641EF9D52846BDE8F0810A68B8
:10523000531C0B601070704710B501608280012410
:105240008471C4710024047244724FF47A74C4608F
:105250000361002444618461094CC461094C046207
:10526000094C4462094C8462094CC462094C0463D1
:10527000094C4463094C8463094CC46310BD0000AD
:10528000A55200084D540008195F0008155F00087A
:1052900053540008055500081D5F00080D5F000805
:1052A000115F000810B50446A1882068FBF712FFC3
:1052B0006072607A217A88421FD0607A2072607AA8
:1052C00010B90120A07108E00020A071E07910B1B0
:1052D000E079022801D10220A071A079E179884209
:1052E00022D0A079E071A079F0B90020E060606977
:1052F000D0B120466169884716E0A07910B1A07945
:10530000022811D1E068401CE0600220A071D4E9BD
:105310000301884208D30320A071A06910B1204680
:10532000A16988470020E06010BD00002DE9F84F1A
:1053300005460C462E686F68D5F808803648016827
:1053400036480068FAF732FF4FF080410090FAF7D4
:10535000B7FF82464146FAF781FF8146394630461B
:10536000FAF724FF83464946FAF772FF80F00040BF
:10537000216808632848016828480068FAF716FF82
:1053800083464FF08041FAF79BFF82464146FAF789
:1053900065FF814639463046FAF75AFF4946009084
:1053A000FAF756FF80F00040616808631A48016808
:1053B0001A480068FAF7FAFE83464FF08041FAF780
:1053C0007FFF82464146FAF749FF8146394630461B
:1053D000FAF7ECFE49460090FAF7E8FEA168086388
:1053E0000D4801680D480068FAF7E0FE83464FF06B
:1053F0008041FAF765FF82464146FAF72FFF814662
:1054000039463046FAF724FF49460090FAF7CEFEB7
:10541000E1680863BDE8F88F6800002064000020A0
:1054200008B508490968C908074AB1FBF2F14143C8
:10543000009100BF00BF00994A1E00920029F9D1D7
:1054400008BD00005C00002040420F000146487A81
:1054500070470146887970472DE9F34F83B00122E8
:10546000DDE90301FBF748FE1420FFF7D9FF002216
:10547000DDE90301FBF740FE4FF000090BE009F105
:1054800001090120FFF7CCFFB9F57A7F03D364202F
:1054900005B0BDE8F08F20211748FBF71BFE002860
:1054A000EDD04FF0000A002408E0641C0120FFF753
:1054B000B7FFB4F57A7F01D36420E9E720210E48D5
:1054C000FBF708FE0128F0D0A4EB0A00FBF7CCF8AC
:1054D00007460A4A0A4BFAF7D8FF00224FF08043EA
:1054E000CDE90001FBF743F80546FBF7E3F88346F7
:1054F0001FFA8BF0CCE7000000100140006F810420
:10550000C58FA13F0146C879704700002DE9F05FC3
:1055100004460D25E0690068406A00B2A0840020BE
:10552000E169096848622846FBF799F88246B4F9B0
:105530002400FBF78BF883460B49FAF78FFE814670
:105540000A49FAF7BDFE80465146FAF7B9FE07460A
:105550004FF08141FAF7B4FE06460549FAF7B0FE6E
:10556000E062BDE8F09F000000B0814600004042CC
:1055700000002041024631B1012906D0022906D09F
:10558000032908D105E0107E7047507EFCE7907E2D
:10559000FAE7D07EF8E70020F6E7000090B0FCF7CD
:1055A00055F9FEF730FEFEF7B9F8FEF789F8FEF779
:1055B0004FF9FEF7F1F9FEF72DFAFEF767FAFEF75D
:1055C000A3FAFEF7DFFAFEF723FBFEF781FBFEF7F7
:1055D0005DF9FEF791F9FEF7B3FBFEF7CDFBFEF7A1
:1055E000C1F9C820FBF7C2FB0021FE48FDF75AFCB9
:1055F0000421FC48FDF756FC0021FB48FDF752FC56
:105600000421F948FDF74EFC0021F848FDF74AFC5B
:105610000421F648FDF746FC0021F548FDF742FC61
:105620000021F448FDF73EFC0021F348FDF766F940
:105630000421F148FDF762F90021F048FDF75EF919
:105640000421EE48FDF75AF90421ED48FDF756F91B
:105650000021EB48FDF752F90021EA48FDF74EF929
:105660000421E848FDF74AF901224FF46041E64879
:10567000FBF742FDE548FEF7B3FB4FF40040E44979
:105680004210CDE90112CDE9031080100B46421003
:105690000090E04800F072FD0820DB490422CDE9CB
:1056A0000112CDE9031002200B4601220090DA48D6
:1056B00000F064FDD94800F083FBD448FEF714FDE8
:1056C0004FF47A70FBF752FBD048FEF771FB0020D5
:1056D000D349886008604860CC48FEF726FECB4876
:1056E000FEF7D5FD4FF47A730122C949CD48FFF783
:1056F000A3FDCD48FCF744FF4FF40040C2494210DF
:105700000B46CDE900210290821005A8FEF766FD48
:10571000002608E04FF40071BB48FBF7E3FC64206F
:10572000FBF724FB761C062EF4DB00BFD9E1BF4853
:105730000078082808D2DFE800F004082EF8F7F611
:10574000F5F4B248FEF7D0FCB6E10BA9AF48FEF77E
:10575000C4FDF8B1BDF83020D1B2BDF82E20D0B2D2
:1057600000F0D2F90346BDF83200C1B2184600F08D
:10577000CBF90646C82E0CDDBDF83000B04208D18A
:1057800005208DF8260005A80A9988470220A74918
:10579000087000BF90E1A648A6490CC803C9FAF7F3
:1057A0006EFE0646A44AA54BFAF7B0FF1AD2A448EB
:1057B000007808B9012000E00020A14908709D4848
:1057C000D0E900109A4AC2E900109D48007818B14B
:1057D00005208DF8260002E007208DF8260005A898
:1057E0000A9988478B48007E28B98A48407E10B9BC
:1057F0008848807E50B38748007E28B98548407E1F
:1058000010B98448C07E08B38248007E28B9814818
:10581000C07E10B97F48807EC0B17E48C07E28B966
:105820007C48407E10B97B48807E78B17948007E04
:1058300000287BD17748407E002877D17548807E4C
:10584000002873D17348C07E00286FD100207449AE
:105850008860086048607B480078E0B90020886074
:105860007948086000204860724830C800BF0022B4
:10587000764B20462946FAF761FD06466D480CC86E
:105880003046FAF743FFF2D302206849087001203E
:105890006C4908705BE06B480078052835DA002019
:1058A0005F4988606848086000204860614830C8E7
:1058B00000BF0022654B20462946FAF73FFD064609
:1058C0005C480CC83046FAF721FFF2D30020544957
:1058D000886008604860574830C800BF4FF03332D6
:1058E0005B4B20462946FAF729FD064651480CC86D
:1058F0003046FAF70BFFF1D352480078401C51496B
:10590000087003204949087021E04E4800780528B6
:105910001DD106204549087000204A49087016E04C
:1059200004E0C5E04CE01CE047E011E010213648FF
:10593000FFF792FD0A2808DC0020394988600860DA
:10594000486005203949087001E000F0E9FAB3E049
:1059500002208DF8260005A80A99884700F0BEFBB2
:10596000AAE003208DF8260005A80A9988470BA90C
:105970002648FEF7B2FCF8B1BDF83020D1B2BDF830
:105980002E20D0B200F0C0F80346BDF83200C1B2FC
:10599000184600F0B9F80646C82E0CDDBDF82E00FA
:1059A000B04208D101208DF8260005A80A99884741
:1059B00004201E49087000BF7EE000F023FB7BE05E
:1059C0000020174988602048086000204860194876
:1059D00030C800BF4FF066321E4B20462946FAF70A
:1059E000ADFC39E02002002068020020B002002057
:1059F000F8020020400300200001002048010020A0
:105A000090010020D801002000100140AC000020CF
:105A1000000C01409C080020C40800202800002041
:105A2000F0060020EC080020880300200000002081
:105A300018000020080000209A9999999999C93F67
:105A40001000002049000020000020410000E03F3D
:105A50003333D33F6666F23F064622480CC83046D1
:105A6000FAF754FEB6D32048204988600020086029
:105A700048601C4830C800BF00221D4B2046294604
:105A8000FAF75CFC064617480CC83046FAF73EFEAB
:105A9000F2D30020154988600860486006208DF820
:105AA000260005A80A99884707201249087003E0D4
:105AB0001148FCF7B9FD00BF00BF0A4903C9FAF756
:105AC000F9FD86B210210D48FFF7C6FC07460C48C9
:105AD0000078CDE9007602900A480DA90EC9FEF7BC
